{
  "_format": "hh-sol-artifact-1",
  "contractName": "PlaylistMe",
  "sourceName": "contracts/PlaylistMe.sol",
  "abi": [
    {
      "inputs": [],
      "stateMutability": "nonpayable",
      "type": "constructor"
    },
    {
      "anonymous": false,
      "inputs": [
        {
          "indexed": true,
          "internalType": "address",
          "name": "from",
          "type": "address"
        },
        {
          "indexed": false,
          "internalType": "string",
          "name": "link",
          "type": "string"
        },
        {
          "indexed": false,
          "internalType": "string",
          "name": "description",
          "type": "string"
        },
        {
          "indexed": false,
          "internalType": "uint256",
          "name": "timestamp",
          "type": "uint256"
        }
      ],
      "name": "PlaylistEvent",
      "type": "event"
    },
    {
      "inputs": [],
      "name": "getPlaylists",
      "outputs": [
        {
          "components": [
            {
              "internalType": "address",
              "name": "owner",
              "type": "address"
            },
            {
              "internalType": "string",
              "name": "link",
              "type": "string"
            },
            {
              "internalType": "string",
              "name": "description",
              "type": "string"
            },
            {
              "internalType": "uint256",
              "name": "timestamp",
              "type": "uint256"
            }
          ],
          "internalType": "struct PlaylistMe.Playlist[]",
          "name": "",
          "type": "tuple[]"
        }
      ],
      "stateMutability": "view",
      "type": "function"
    },
    {
      "inputs": [],
      "name": "getTotalPlaylists",
      "outputs": [
        {
          "internalType": "uint256",
          "name": "",
          "type": "uint256"
        }
      ],
      "stateMutability": "view",
      "type": "function"
    },
    {
      "inputs": [
        {
          "internalType": "string",
          "name": "link",
          "type": "string"
        },
        {
          "internalType": "string",
          "name": "description",
          "type": "string"
        }
      ],
      "name": "sendPlaylist",
      "outputs": [],
      "stateMutability": "nonpayable",
      "type": "function"
    }
  ],
  "bytecode": "0x60806040523480156200001157600080fd5b506200005d6040518060400160405280601d81526020017f57656c636f6d6520746f2074686520506c61796c6973744d65206170700000008152506200006360201b620004c91760201c565b620001f7565b62000103816040516024016200007a919062000170565b6040516020818303038152906040527f41304fac000000000000000000000000000000000000000000000000000000007bffffffffffffffffffffffffffffffffffffffffffffffffffffffff19166020820180517bffffffffffffffffffffffffffffffffffffffffffffffffffffffff83818316178352505050506200010660201b60201c565b50565b60008151905060006a636f6e736f6c652e6c6f679050602083016000808483855afa5050505050565b60006200013c8262000194565b6200014881856200019f565b93506200015a818560208601620001b0565b6200016581620001e6565b840191505092915050565b600060208201905081810360008301526200018c81846200012f565b905092915050565b600081519050919050565b600082825260208201905092915050565b60005b83811015620001d0578082015181840152602081019050620001b3565b83811115620001e0576000848401525b50505050565b6000601f19601f8301169050919050565b610e2280620002076000396000f3fe608060405234801561001057600080fd5b50600436106100415760003560e01c8063889c3a9914610046578063b9f9db2514610062578063f166667514610080575b600080fd5b610060600480360381019061005b919061086a565b61009e565b005b61006a6102b2565b6040516100779190610a77565b60405180910390f35b610088610495565b6040516100959190610b97565b60405180910390f35b600060405180608001604052803373ffffffffffffffffffffffffffffffffffffffff168152602001848152602001838152602001428152509050600081908060018154018082558091505060019003906000526020600020906004020160009091909190915060008201518160000160006101000a81548173ffffffffffffffffffffffffffffffffffffffff021916908373ffffffffffffffffffffffffffffffffffffffff160217905550602082015181600101908051906020019061016892919061075f565b50604082015181600201908051906020019061018592919061075f565b506060820151816003015550503373ffffffffffffffffffffffffffffffffffffffff167f69310cbbceeb9248ad48bf11b5a616f50259b0cca9d77fa2088080ee90a1b9c88484426040516101dc93929190610b22565b60405180910390a26102276040518060400160405280601d81526020017f2573206861766520736861726520746865697220706c61796c697374210000008152508260000151610562565b61026a6040518060400160405280600b81526020017f436f6d6d656e743a20257300000000000000000000000000000000000000000081525082604001516105fe565b6102ad6040518060400160405280600981526020017f4c696e6b3a2025730a000000000000000000000000000000000000000000000081525082602001516105fe565b505050565b60606000805480602002602001604051908101604052809291908181526020016000905b8282101561048c57838290600052602060002090600402016040518060800160405290816000820160009054906101000a900473ffffffffffffffffffffffffffffffffffffffff1673ffffffffffffffffffffffffffffffffffffffff1673ffffffffffffffffffffffffffffffffffffffff16815260200160018201805461035f90610cec565b80601f016020809104026020016040519081016040528092919081815260200182805461038b90610cec565b80156103d85780601f106103ad576101008083540402835291602001916103d8565b820191906000526020600020905b8154815290600101906020018083116103bb57829003601f168201915b505050505081526020016002820180546103f190610cec565b80601f016020809104026020016040519081016040528092919081815260200182805461041d90610cec565b801561046a5780601f1061043f5761010080835404028352916020019161046a565b820191906000526020600020905b81548152906001019060200180831161044d57829003601f168201915b50505050508152602001600382015481525050815260200190600101906102d6565b50505050905090565b60006104be6040518060600160405280602e8152602001610dbf602e913960008054905061069a565b600080549050905090565b61055f816040516024016104dd9190610a99565b6040516020818303038152906040527f41304fac000000000000000000000000000000000000000000000000000000007bffffffffffffffffffffffffffffffffffffffffffffffffffffffff19166020820180517bffffffffffffffffffffffffffffffffffffffffffffffffffffffff8381831617835250505050610736565b50565b6105fa8282604051602401610578929190610abb565b6040516020818303038152906040527f319af333000000000000000000000000000000000000000000000000000000007bffffffffffffffffffffffffffffffffffffffffffffffffffffffff19166020820180517bffffffffffffffffffffffffffffffffffffffffffffffffffffffff8381831617835250505050610736565b5050565b6106968282604051602401610614929190610aeb565b6040516020818303038152906040527f4b5c4277000000000000000000000000000000000000000000000000000000007bffffffffffffffffffffffffffffffffffffffffffffffffffffffff19166020820180517bffffffffffffffffffffffffffffffffffffffffffffffffffffffff8381831617835250505050610736565b5050565b61073282826040516024016106b0929190610b67565b6040516020818303038152906040527f9710a9d0000000000000000000000000000000000000000000000000000000007bffffffffffffffffffffffffffffffffffffffffffffffffffffffff19166020820180517bffffffffffffffffffffffffffffffffffffffffffffffffffffffff8381831617835250505050610736565b5050565b60008151905060006a636f6e736f6c652e6c6f679050602083016000808483855afa5050505050565b82805461076b90610cec565b90600052602060002090601f01602090048101928261078d57600085556107d4565b82601f106107a657805160ff19168380011785556107d4565b828001600101855582156107d4579182015b828111156107d35782518255916020019190600101906107b8565b5b5090506107e191906107e5565b5090565b5b808211156107fe5760008160009055506001016107e6565b5090565b600061081561081084610bd7565b610bb2565b90508281526020810184848401111561082d57600080fd5b610838848285610caa565b509392505050565b600082601f83011261085157600080fd5b8135610861848260208601610802565b91505092915050565b6000806040838503121561087d57600080fd5b600083013567ffffffffffffffff81111561089757600080fd5b6108a385828601610840565b925050602083013567ffffffffffffffff8111156108c057600080fd5b6108cc85828601610840565b9150509250929050565b60006108e283836109ef565b905092915050565b6108f381610c6e565b82525050565b61090281610c6e565b82525050565b600061091382610c18565b61091d8185610c3b565b93508360208202850161092f85610c08565b8060005b8581101561096b578484038952815161094c85826108d6565b945061095783610c2e565b925060208a01995050600181019050610933565b50829750879550505050505092915050565b600061098882610c23565b6109928185610c4c565b93506109a2818560208601610cb9565b6109ab81610dad565b840191505092915050565b60006109c182610c23565b6109cb8185610c5d565b93506109db818560208601610cb9565b6109e481610dad565b840191505092915050565b6000608083016000830151610a0760008601826108ea565b5060208301518482036020860152610a1f828261097d565b91505060408301518482036040860152610a39828261097d565b9150506060830151610a4e6060860182610a59565b508091505092915050565b610a6281610ca0565b82525050565b610a7181610ca0565b82525050565b60006020820190508181036000830152610a918184610908565b905092915050565b60006020820190508181036000830152610ab381846109b6565b905092915050565b60006040820190508181036000830152610ad581856109b6565b9050610ae460208301846108f9565b9392505050565b60006040820190508181036000830152610b0581856109b6565b90508181036020830152610b1981846109b6565b90509392505050565b60006060820190508181036000830152610b3c81866109b6565b90508181036020830152610b5081856109b6565b9050610b5f6040830184610a68565b949350505050565b60006040820190508181036000830152610b8181856109b6565b9050610b906020830184610a68565b9392505050565b6000602082019050610bac6000830184610a68565b92915050565b6000610bbc610bcd565b9050610bc88282610d1e565b919050565b6000604051905090565b600067ffffffffffffffff821115610bf257610bf1610d7e565b5b610bfb82610dad565b9050602081019050919050565b6000819050602082019050919050565b600081519050919050565b600081519050919050565b6000602082019050919050565b600082825260208201905092915050565b600082825260208201905092915050565b600082825260208201905092915050565b6000610c7982610c80565b9050919050565b600073ffffffffffffffffffffffffffffffffffffffff82169050919050565b6000819050919050565b82818337600083830152505050565b60005b83811015610cd7578082015181840152602081019050610cbc565b83811115610ce6576000848401525b50505050565b60006002820490506001821680610d0457607f821691505b60208210811415610d1857610d17610d4f565b5b50919050565b610d2782610dad565b810181811067ffffffffffffffff82111715610d4657610d45610d7e565b5b80604052505050565b7f4e487b7100000000000000000000000000000000000000000000000000000000600052602260045260246000fd5b7f4e487b7100000000000000000000000000000000000000000000000000000000600052604160045260246000fd5b6000601f19601f830116905091905056fe5765206861766520256420746f74616c2075736572732073686172696e6720746865697220706c61796c69737421a2646970667358221220f15218e76b9944215a1170cff8104d77f5869330924f4f114f1f0331fe7b478464736f6c63430008040033",
  "linkReferences": {},
  "deployedLinkReferences": {}
}