{
    "_format": "hh-sol-artifact-1",
    "contractName": "PlaylistMe",
    "sourceName": "contracts/PlaylistMe.sol",
    "abi": [
        {
            "inputs": [],
            "stateMutability": "nonpayable",
            "type": "constructor"
        },
        {
            "inputs": [],
            "name": "getTotalPlaylists",
            "outputs": [
                {
                    "internalType": "uint256",
                    "name": "",
                    "type": "uint256"
                }
            ],
            "stateMutability": "view",
            "type": "function"
        },
        {
            "inputs": [
                {
                    "internalType": "string",
                    "name": "playlist",
                    "type": "string"
                },
                {
                    "internalType": "string",
                    "name": "comment",
                    "type": "string"
                }
            ],
            "name": "sendPlaylist",
            "outputs": [],
            "stateMutability": "nonpayable",
            "type": "function"
        }
    ],
    "bytecode": "0x608060405234801561001057600080fd5b506100596040518060400160405280601d81526020017f57656c636f6d6520746f2074686520506c61796c6973744d652061707000000081525061005e60201b61025b1760201c565b6101e1565b6100fa81604051602401610072919061015f565b6040516020818303038152906040527f41304fac000000000000000000000000000000000000000000000000000000007bffffffffffffffffffffffffffffffffffffffffffffffffffffffff19166020820180517bffffffffffffffffffffffffffffffffffffffffffffffffffffffff83818316178352505050506100fd60201b60201c565b50565b60008151905060006a636f6e736f6c652e6c6f679050602083016000808483855afa5050505050565b600061013182610181565b61013b818561018c565b935061014b81856020860161019d565b610154816101d0565b840191505092915050565b600060208201905081810360008301526101798184610126565b905092915050565b600081519050919050565b600082825260208201905092915050565b60005b838110156101bb5780820151818401526020810190506101a0565b838111156101ca576000848401525b50505050565b6000601f19601f8301169050919050565b6109b9806101f06000396000f3fe608060405234801561001057600080fd5b50600436106100365760003560e01c8063889c3a991461003b578063f166667514610057575b600080fd5b610055600480360381019061005091906105fc565b610075565b005b61005f610227565b60405161006c9190610778565b60405180910390f35b600060405180606001604052803373ffffffffffffffffffffffffffffffffffffffff168152602001848152602001838152509050600081908060018154018082558091505060019003906000526020600020906003020160009091909190915060008201518160000160006101000a81548173ffffffffffffffffffffffffffffffffffffffff021916908373ffffffffffffffffffffffffffffffffffffffff16021790555060208201518160010190805190602001906101399291906104f1565b5060408201518160020190805190602001906101569291906104f1565b50505061019c6040518060400160405280601d81526020017f2573206861766520736861726520746865697220706c61796c6973742100000081525082600001516102f4565b6101df6040518060400160405280600b81526020017f436f6d6d656e743a2025730000000000000000000000000000000000000000008152508260400151610390565b6102226040518060400160405280600981526020017f4c696e6b3a2025730a00000000000000000000000000000000000000000000008152508260200151610390565b505050565b60006102506040518060600160405280602e8152602001610956602e913960008054905061042c565b600080549050905090565b6102f18160405160240161026f91906106bf565b6040516020818303038152906040527f41304fac000000000000000000000000000000000000000000000000000000007bffffffffffffffffffffffffffffffffffffffffffffffffffffffff19166020820180517bffffffffffffffffffffffffffffffffffffffffffffffffffffffff83818316178352505050506104c8565b50565b61038c828260405160240161030a9291906106e1565b6040516020818303038152906040527f319af333000000000000000000000000000000000000000000000000000000007bffffffffffffffffffffffffffffffffffffffffffffffffffffffff19166020820180517bffffffffffffffffffffffffffffffffffffffffffffffffffffffff83818316178352505050506104c8565b5050565b61042882826040516024016103a6929190610711565b6040516020818303038152906040527f4b5c4277000000000000000000000000000000000000000000000000000000007bffffffffffffffffffffffffffffffffffffffffffffffffffffffff19166020820180517bffffffffffffffffffffffffffffffffffffffffffffffffffffffff83818316178352505050506104c8565b5050565b6104c48282604051602401610442929190610748565b6040516020818303038152906040527f9710a9d0000000000000000000000000000000000000000000000000000000007bffffffffffffffffffffffffffffffffffffffffffffffffffffffff19166020820180517bffffffffffffffffffffffffffffffffffffffffffffffffffffffff83818316178352505050506104c8565b5050565b60008151905060006a636f6e736f6c652e6c6f679050602083016000808483855afa5050505050565b8280546104fd90610883565b90600052602060002090601f01602090048101928261051f5760008555610566565b82601f1061053857805160ff1916838001178555610566565b82800160010185558215610566579182015b8281111561056557825182559160200191906001019061054a565b5b5090506105739190610577565b5090565b5b80821115610590576000816000905550600101610578565b5090565b60006105a76105a2846107b8565b610793565b9050828152602081018484840111156105bf57600080fd5b6105ca848285610841565b509392505050565b600082601f8301126105e357600080fd5b81356105f3848260208601610594565b91505092915050565b6000806040838503121561060f57600080fd5b600083013567ffffffffffffffff81111561062957600080fd5b610635858286016105d2565b925050602083013567ffffffffffffffff81111561065257600080fd5b61065e858286016105d2565b9150509250929050565b61067181610805565b82525050565b6000610682826107e9565b61068c81856107f4565b935061069c818560208601610850565b6106a581610944565b840191505092915050565b6106b981610837565b82525050565b600060208201905081810360008301526106d98184610677565b905092915050565b600060408201905081810360008301526106fb8185610677565b905061070a6020830184610668565b9392505050565b6000604082019050818103600083015261072b8185610677565b9050818103602083015261073f8184610677565b90509392505050565b600060408201905081810360008301526107628185610677565b905061077160208301846106b0565b9392505050565b600060208201905061078d60008301846106b0565b92915050565b600061079d6107ae565b90506107a982826108b5565b919050565b6000604051905090565b600067ffffffffffffffff8211156107d3576107d2610915565b5b6107dc82610944565b9050602081019050919050565b600081519050919050565b600082825260208201905092915050565b600061081082610817565b9050919050565b600073ffffffffffffffffffffffffffffffffffffffff82169050919050565b6000819050919050565b82818337600083830152505050565b60005b8381101561086e578082015181840152602081019050610853565b8381111561087d576000848401525b50505050565b6000600282049050600182168061089b57607f821691505b602082108114156108af576108ae6108e6565b5b50919050565b6108be82610944565b810181811067ffffffffffffffff821117156108dd576108dc610915565b5b80604052505050565b7f4e487b7100000000000000000000000000000000000000000000000000000000600052602260045260246000fd5b7f4e487b7100000000000000000000000000000000000000000000000000000000600052604160045260246000fd5b6000601f19601f830116905091905056fe5765206861766520256420746f74616c2075736572732073686172696e6720746865697220706c61796c69737421a2646970667358221220419e42c6c662715b4f7c423e610ef331e0ce9491099f60e0268725c0f3989da664736f6c63430008040033",
    "linkReferences": {},
    "deployedLinkReferences": {}
}